{
  "contractName": "DecagonToken",
  "abi": [
    {
      "inputs": [
        {
          "internalType": "uint256",
          "name": "_initialSupply",
          "type": "uint256"
        }
      ],
      "stateMutability": "nonpayable",
      "type": "constructor"
    },
    {
      "anonymous": false,
      "inputs": [
        {
          "indexed": true,
          "internalType": "address",
          "name": "owner",
          "type": "address"
        },
        {
          "indexed": true,
          "internalType": "address",
          "name": "spender",
          "type": "address"
        },
        {
          "indexed": false,
          "internalType": "uint256",
          "name": "value",
          "type": "uint256"
        }
      ],
      "name": "Approval",
      "type": "event"
    },
    {
      "anonymous": false,
      "inputs": [
        {
          "indexed": true,
          "internalType": "address",
          "name": "from",
          "type": "address"
        },
        {
          "indexed": true,
          "internalType": "address",
          "name": "to",
          "type": "address"
        },
        {
          "indexed": false,
          "internalType": "uint256",
          "name": "value",
          "type": "uint256"
        }
      ],
      "name": "Transfer",
      "type": "event"
    },
    {
      "inputs": [],
      "name": "admin",
      "outputs": [
        {
          "internalType": "address",
          "name": "",
          "type": "address"
        }
      ],
      "stateMutability": "view",
      "type": "function"
    },
    {
      "inputs": [
        {
          "internalType": "address",
          "name": "owner",
          "type": "address"
        },
        {
          "internalType": "address",
          "name": "spender",
          "type": "address"
        }
      ],
      "name": "allowance",
      "outputs": [
        {
          "internalType": "uint256",
          "name": "",
          "type": "uint256"
        }
      ],
      "stateMutability": "view",
      "type": "function"
    },
    {
      "inputs": [
        {
          "internalType": "address",
          "name": "spender",
          "type": "address"
        },
        {
          "internalType": "uint256",
          "name": "amount",
          "type": "uint256"
        }
      ],
      "name": "approve",
      "outputs": [
        {
          "internalType": "bool",
          "name": "",
          "type": "bool"
        }
      ],
      "stateMutability": "nonpayable",
      "type": "function"
    },
    {
      "inputs": [
        {
          "internalType": "address",
          "name": "account",
          "type": "address"
        }
      ],
      "name": "balanceOf",
      "outputs": [
        {
          "internalType": "uint256",
          "name": "",
          "type": "uint256"
        }
      ],
      "stateMutability": "view",
      "type": "function"
    },
    {
      "inputs": [],
      "name": "decimals",
      "outputs": [
        {
          "internalType": "uint8",
          "name": "",
          "type": "uint8"
        }
      ],
      "stateMutability": "view",
      "type": "function"
    },
    {
      "inputs": [
        {
          "internalType": "address",
          "name": "spender",
          "type": "address"
        },
        {
          "internalType": "uint256",
          "name": "subtractedValue",
          "type": "uint256"
        }
      ],
      "name": "decreaseAllowance",
      "outputs": [
        {
          "internalType": "bool",
          "name": "",
          "type": "bool"
        }
      ],
      "stateMutability": "nonpayable",
      "type": "function"
    },
    {
      "inputs": [
        {
          "internalType": "address",
          "name": "spender",
          "type": "address"
        },
        {
          "internalType": "uint256",
          "name": "addedValue",
          "type": "uint256"
        }
      ],
      "name": "increaseAllowance",
      "outputs": [
        {
          "internalType": "bool",
          "name": "",
          "type": "bool"
        }
      ],
      "stateMutability": "nonpayable",
      "type": "function"
    },
    {
      "inputs": [],
      "name": "name",
      "outputs": [
        {
          "internalType": "string",
          "name": "",
          "type": "string"
        }
      ],
      "stateMutability": "view",
      "type": "function"
    },
    {
      "inputs": [],
      "name": "symbol",
      "outputs": [
        {
          "internalType": "string",
          "name": "",
          "type": "string"
        }
      ],
      "stateMutability": "view",
      "type": "function"
    },
    {
      "inputs": [],
      "name": "totalSupply",
      "outputs": [
        {
          "internalType": "uint256",
          "name": "",
          "type": "uint256"
        }
      ],
      "stateMutability": "view",
      "type": "function"
    },
    {
      "inputs": [
        {
          "internalType": "address",
          "name": "to",
          "type": "address"
        },
        {
          "internalType": "uint256",
          "name": "amount",
          "type": "uint256"
        }
      ],
      "name": "transfer",
      "outputs": [
        {
          "internalType": "bool",
          "name": "",
          "type": "bool"
        }
      ],
      "stateMutability": "nonpayable",
      "type": "function"
    },
    {
      "inputs": [
        {
          "internalType": "address",
          "name": "from",
          "type": "address"
        },
        {
          "internalType": "address",
          "name": "to",
          "type": "address"
        },
        {
          "internalType": "uint256",
          "name": "amount",
          "type": "uint256"
        }
      ],
      "name": "transferFrom",
      "outputs": [
        {
          "internalType": "bool",
          "name": "",
          "type": "bool"
        }
      ],
      "stateMutability": "nonpayable",
      "type": "function"
    },
    {
      "inputs": [
        {
          "internalType": "address",
          "name": "holder",
          "type": "address"
        },
        {
          "internalType": "uint256",
          "name": "amount",
          "type": "uint256"
        }
      ],
      "name": "mint",
      "outputs": [],
      "stateMutability": "nonpayable",
      "type": "function"
    },
    {
      "inputs": [
        {
          "internalType": "uint256",
          "name": "amount",
          "type": "uint256"
        }
      ],
      "name": "burn",
      "outputs": [],
      "stateMutability": "nonpayable",
      "type": "function"
    }
  ],
  "bytecode": "0x60806040523480156200001157600080fd5b5060405162002438380380620024388339818101604052810190620000379190620003d7565b6040518060400160405280600c81526020017f44656361676f6e546f6b656e00000000000000000000000000000000000000008152506040518060400160405280600381526020017f44475400000000000000000000000000000000000000000000000000000000008152508160039080519060200190620000bb929190620002e7565b508060049080519060200190620000d4929190620002e7565b5050506200011333620000ec6200015b60201b60201c565b600a620000fa919062000599565b83620001079190620005ea565b6200016460201b60201c565b33600560006101000a81548173ffffffffffffffffffffffffffffffffffffffff021916908373ffffffffffffffffffffffffffffffffffffffff16021790555050620007be565b60006012905090565b600073ffffffffffffffffffffffffffffffffffffffff168273ffffffffffffffffffffffffffffffffffffffff161415620001d7576040517f08c379a0000000000000000000000000000000000000000000000000000000008152600401620001ce90620006ac565b60405180910390fd5b620001eb60008383620002dd60201b60201c565b8060026000828254620001ff9190620006ce565b92505081905550806000808473ffffffffffffffffffffffffffffffffffffffff1673ffffffffffffffffffffffffffffffffffffffff1681526020019081526020016000206000828254620002569190620006ce565b925050819055508173ffffffffffffffffffffffffffffffffffffffff16600073ffffffffffffffffffffffffffffffffffffffff167fddf252ad1be2c89b69c2b068fc378daa952ba7f163c4a11628f55a4df523b3ef83604051620002bd91906200073c565b60405180910390a3620002d960008383620002e260201b60201c565b5050565b505050565b505050565b828054620002f59062000788565b90600052602060002090601f01602090048101928262000319576000855562000365565b82601f106200033457805160ff191683800117855562000365565b8280016001018555821562000365579182015b828111156200036457825182559160200191906001019062000347565b5b50905062000374919062000378565b5090565b5b808211156200039357600081600090555060010162000379565b5090565b600080fd5b6000819050919050565b620003b1816200039c565b8114620003bd57600080fd5b50565b600081519050620003d181620003a6565b92915050565b600060208284031215620003f057620003ef62000397565b5b60006200040084828501620003c0565b91505092915050565b7f4e487b7100000000000000000000000000000000000000000000000000000000600052601160045260246000fd5b60008160011c9050919050565b6000808291508390505b600185111562000497578086048111156200046f576200046e62000409565b5b60018516156200047f5780820291505b80810290506200048f8562000438565b94506200044f565b94509492505050565b600082620004b2576001905062000585565b81620004c2576000905062000585565b8160018114620004db5760028114620004e6576200051c565b600191505062000585565b60ff841115620004fb57620004fa62000409565b5b8360020a91508482111562000515576200051462000409565b5b5062000585565b5060208310610133831016604e8410600b8410161715620005565782820a90508381111562000550576200054f62000409565b5b62000585565b62000565848484600162000445565b925090508184048111156200057f576200057e62000409565b5b81810290505b9392505050565b600060ff82169050919050565b6000620005a6826200039c565b9150620005b3836200058c565b9250620005e27fffffffffffffffffffffffffffffffffffffffffffffffffffffffffffffffff8484620004a0565b905092915050565b6000620005f7826200039c565b915062000604836200039c565b9250817fffffffffffffffffffffffffffffffffffffffffffffffffffffffffffffffff048311821515161562000640576200063f62000409565b5b828202905092915050565b600082825260208201905092915050565b7f45524332303a206d696e7420746f20746865207a65726f206164647265737300600082015250565b600062000694601f836200064b565b9150620006a1826200065c565b602082019050919050565b60006020820190508181036000830152620006c78162000685565b9050919050565b6000620006db826200039c565b9150620006e8836200039c565b9250827fffffffffffffffffffffffffffffffffffffffffffffffffffffffffffffffff0382111562000720576200071f62000409565b5b828201905092915050565b62000736816200039c565b82525050565b60006020820190506200075360008301846200072b565b92915050565b7f4e487b7100000000000000000000000000000000000000000000000000000000600052602260045260246000fd5b60006002820490506001821680620007a157607f821691505b60208210811415620007b857620007b762000759565b5b50919050565b611c6a80620007ce6000396000f3fe608060405234801561001057600080fd5b50600436106100ea5760003560e01c806342966c681161008c578063a457c2d711610066578063a457c2d71461025f578063a9059cbb1461028f578063dd62ed3e146102bf578063f851a440146102ef576100ea565b806342966c68146101f557806370a082311461021157806395d89b4114610241576100ea565b806323b872dd116100c857806323b872dd1461015b578063313ce5671461018b57806339509351146101a957806340c10f19146101d9576100ea565b806306fdde03146100ef578063095ea7b31461010d57806318160ddd1461013d575b600080fd5b6100f761030d565b60405161010491906110c5565b60405180910390f35b61012760048036038101906101229190611180565b61039f565b60405161013491906111db565b60405180910390f35b6101456103c2565b6040516101529190611205565b60405180910390f35b61017560048036038101906101709190611220565b6103cc565b60405161018291906111db565b60405180910390f35b6101936103fb565b6040516101a0919061128f565b60405180910390f35b6101c360048036038101906101be9190611180565b610404565b6040516101d091906111db565b60405180910390f35b6101f360048036038101906101ee9190611180565b6104ae565b005b61020f600480360381019061020a91906112aa565b61056a565b005b61022b600480360381019061022691906112d7565b610577565b6040516102389190611205565b60405180910390f35b6102496105bf565b60405161025691906110c5565b60405180910390f35b61027960048036038101906102749190611180565b610651565b60405161028691906111db565b60405180910390f35b6102a960048036038101906102a49190611180565b61073b565b6040516102b691906111db565b60405180910390f35b6102d960048036038101906102d49190611304565b61075e565b6040516102e69190611205565b60405180910390f35b6102f76107e5565b6040516103049190611353565b60405180910390f35b60606003805461031c9061139d565b80601f01602080910402602001604051908101604052809291908181526020018280546103489061139d565b80156103955780601f1061036a57610100808354040283529160200191610395565b820191906000526020600020905b81548152906001019060200180831161037857829003601f168201915b5050505050905090565b6000806103aa61080b565b90506103b7818585610813565b600191505092915050565b6000600254905090565b6000806103d761080b565b90506103e48582856109de565b6103ef858585610a6a565b60019150509392505050565b60006012905090565b60008061040f61080b565b90506104a3818585600160008673ffffffffffffffffffffffffffffffffffffffff1673ffffffffffffffffffffffffffffffffffffffff16815260200190815260200160002060008973ffffffffffffffffffffffffffffffffffffffff1673ffffffffffffffffffffffffffffffffffffffff1681526020019081526020016000205461049e91906113fe565b610813565b600191505092915050565b600560009054906101000a900473ffffffffffffffffffffffffffffffffffffffff1673ffffffffffffffffffffffffffffffffffffffff163373ffffffffffffffffffffffffffffffffffffffff161461053e576040517f08c379a0000000000000000000000000000000000000000000000000000000008152600401610535906114a0565b60405180910390fd5b6105668261054a6103fb565b600a61055691906115f3565b83610561919061163e565b610ceb565b5050565b6105743382610e4b565b50565b60008060008373ffffffffffffffffffffffffffffffffffffffff1673ffffffffffffffffffffffffffffffffffffffff168152602001908152602001600020549050919050565b6060600480546105ce9061139d565b80601f01602080910402602001604051908101604052809291908181526020018280546105fa9061139d565b80156106475780601f1061061c57610100808354040283529160200191610647565b820191906000526020600020905b81548152906001019060200180831161062a57829003601f168201915b5050505050905090565b60008061065c61080b565b90506000600160008373ffffffffffffffffffffffffffffffffffffffff1673ffffffffffffffffffffffffffffffffffffffff16815260200190815260200160002060008673ffffffffffffffffffffffffffffffffffffffff1673ffffffffffffffffffffffffffffffffffffffff16815260200190815260200160002054905083811015610722576040517f08c379a00000000000000000000000000000000000000000000000000000000081526004016107199061170a565b60405180910390fd5b61072f8286868403610813565b60019250505092915050565b60008061074661080b565b9050610753818585610a6a565b600191505092915050565b6000600160008473ffffffffffffffffffffffffffffffffffffffff1673ffffffffffffffffffffffffffffffffffffffff16815260200190815260200160002060008373ffffffffffffffffffffffffffffffffffffffff1673ffffffffffffffffffffffffffffffffffffffff16815260200190815260200160002054905092915050565b600560009054906101000a900473ffffffffffffffffffffffffffffffffffffffff1681565b600033905090565b600073ffffffffffffffffffffffffffffffffffffffff168373ffffffffffffffffffffffffffffffffffffffff161415610883576040517f08c379a000000000000000000000000000000000000000000000000000000000815260040161087a9061179c565b60405180910390fd5b600073ffffffffffffffffffffffffffffffffffffffff168273ffffffffffffffffffffffffffffffffffffffff1614156108f3576040517f08c379a00000000000000000000000000000000000000000000000000000000081526004016108ea9061182e565b60405180910390fd5b80600160008573ffffffffffffffffffffffffffffffffffffffff1673ffffffffffffffffffffffffffffffffffffffff16815260200190815260200160002060008473ffffffffffffffffffffffffffffffffffffffff1673ffffffffffffffffffffffffffffffffffffffff168152602001908152602001600020819055508173ffffffffffffffffffffffffffffffffffffffff168373ffffffffffffffffffffffffffffffffffffffff167f8c5be1e5ebec7d5bd14f71427d1e84f3dd0314c0f7b2291e5b200ac8c7c3b925836040516109d19190611205565b60405180910390a3505050565b60006109ea848461075e565b90507fffffffffffffffffffffffffffffffffffffffffffffffffffffffffffffffff8114610a645781811015610a56576040517f08c379a0000000000000000000000000000000000000000000000000000000008152600401610a4d9061189a565b60405180910390fd5b610a638484848403610813565b5b50505050565b600073ffffffffffffffffffffffffffffffffffffffff168373ffffffffffffffffffffffffffffffffffffffff161415610ada576040517f08c379a0000000000000000000000000000000000000000000000000000000008152600401610ad19061192c565b60405180910390fd5b600073ffffffffffffffffffffffffffffffffffffffff168273ffffffffffffffffffffffffffffffffffffffff161415610b4a576040517f08c379a0000000000000000000000000000000000000000000000000000000008152600401610b41906119be565b60405180910390fd5b610b55838383611022565b60008060008573ffffffffffffffffffffffffffffffffffffffff1673ffffffffffffffffffffffffffffffffffffffff16815260200190815260200160002054905081811015610bdb576040517f08c379a0000000000000000000000000000000000000000000000000000000008152600401610bd290611a50565b60405180910390fd5b8181036000808673ffffffffffffffffffffffffffffffffffffffff1673ffffffffffffffffffffffffffffffffffffffff16815260200190815260200160002081905550816000808573ffffffffffffffffffffffffffffffffffffffff1673ffffffffffffffffffffffffffffffffffffffff1681526020019081526020016000206000828254610c6e91906113fe565b925050819055508273ffffffffffffffffffffffffffffffffffffffff168473ffffffffffffffffffffffffffffffffffffffff167fddf252ad1be2c89b69c2b068fc378daa952ba7f163c4a11628f55a4df523b3ef84604051610cd29190611205565b60405180910390a3610ce5848484611027565b50505050565b600073ffffffffffffffffffffffffffffffffffffffff168273ffffffffffffffffffffffffffffffffffffffff161415610d5b576040517f08c379a0000000000000000000000000000000000000000000000000000000008152600401610d5290611abc565b60405180910390fd5b610d6760008383611022565b8060026000828254610d7991906113fe565b92505081905550806000808473ffffffffffffffffffffffffffffffffffffffff1673ffffffffffffffffffffffffffffffffffffffff1681526020019081526020016000206000828254610dce91906113fe565b925050819055508173ffffffffffffffffffffffffffffffffffffffff16600073ffffffffffffffffffffffffffffffffffffffff167fddf252ad1be2c89b69c2b068fc378daa952ba7f163c4a11628f55a4df523b3ef83604051610e339190611205565b60405180910390a3610e4760008383611027565b5050565b600073ffffffffffffffffffffffffffffffffffffffff168273ffffffffffffffffffffffffffffffffffffffff161415610ebb576040517f08c379a0000000000000000000000000000000000000000000000000000000008152600401610eb290611b4e565b60405180910390fd5b610ec782600083611022565b60008060008473ffffffffffffffffffffffffffffffffffffffff1673ffffffffffffffffffffffffffffffffffffffff16815260200190815260200160002054905081811015610f4d576040517f08c379a0000000000000000000000000000000000000000000000000000000008152600401610f4490611be0565b60405180910390fd5b8181036000808573ffffffffffffffffffffffffffffffffffffffff1673ffffffffffffffffffffffffffffffffffffffff168152602001908152602001600020819055508160026000828254610fa49190611c00565b92505081905550600073ffffffffffffffffffffffffffffffffffffffff168373ffffffffffffffffffffffffffffffffffffffff167fddf252ad1be2c89b69c2b068fc378daa952ba7f163c4a11628f55a4df523b3ef846040516110099190611205565b60405180910390a361101d83600084611027565b505050565b505050565b505050565b600081519050919050565b600082825260208201905092915050565b60005b8381101561106657808201518184015260208101905061104b565b83811115611075576000848401525b50505050565b6000601f19601f8301169050919050565b60006110978261102c565b6110a18185611037565b93506110b1818560208601611048565b6110ba8161107b565b840191505092915050565b600060208201905081810360008301526110df818461108c565b905092915050565b600080fd5b600073ffffffffffffffffffffffffffffffffffffffff82169050919050565b6000611117826110ec565b9050919050565b6111278161110c565b811461113257600080fd5b50565b6000813590506111448161111e565b92915050565b6000819050919050565b61115d8161114a565b811461116857600080fd5b50565b60008135905061117a81611154565b92915050565b60008060408385031215611197576111966110e7565b5b60006111a585828601611135565b92505060206111b68582860161116b565b9150509250929050565b60008115159050919050565b6111d5816111c0565b82525050565b60006020820190506111f060008301846111cc565b92915050565b6111ff8161114a565b82525050565b600060208201905061121a60008301846111f6565b92915050565b600080600060608486031215611239576112386110e7565b5b600061124786828701611135565b935050602061125886828701611135565b92505060406112698682870161116b565b9150509250925092565b600060ff82169050919050565b61128981611273565b82525050565b60006020820190506112a46000830184611280565b92915050565b6000602082840312156112c0576112bf6110e7565b5b60006112ce8482850161116b565b91505092915050565b6000602082840312156112ed576112ec6110e7565b5b60006112fb84828501611135565b91505092915050565b6000806040838503121561131b5761131a6110e7565b5b600061132985828601611135565b925050602061133a85828601611135565b9150509250929050565b61134d8161110c565b82525050565b60006020820190506113686000830184611344565b92915050565b7f4e487b7100000000000000000000000000000000000000000000000000000000600052602260045260246000fd5b600060028204905060018216806113b557607f821691505b602082108114156113c9576113c861136e565b5b50919050565b7f4e487b7100000000000000000000000000000000000000000000000000000000600052601160045260246000fd5b60006114098261114a565b91506114148361114a565b9250827fffffffffffffffffffffffffffffffffffffffffffffffffffffffffffffffff03821115611449576114486113cf565b5b828201905092915050565b7f4f6e6c792061646d696e2063616e206d696e7420746f6b656e00000000000000600082015250565b600061148a601983611037565b915061149582611454565b602082019050919050565b600060208201905081810360008301526114b98161147d565b9050919050565b60008160011c9050919050565b6000808291508390505b6001851115611517578086048111156114f3576114f26113cf565b5b60018516156115025780820291505b8081029050611510856114c0565b94506114d7565b94509492505050565b60008261153057600190506115ec565b8161153e57600090506115ec565b8160018114611554576002811461155e5761158d565b60019150506115ec565b60ff8411156115705761156f6113cf565b5b8360020a915084821115611587576115866113cf565b5b506115ec565b5060208310610133831016604e8410600b84101617156115c25782820a9050838111156115bd576115bc6113cf565b5b6115ec565b6115cf84848460016114cd565b925090508184048111156115e6576115e56113cf565b5b81810290505b9392505050565b60006115fe8261114a565b915061160983611273565b92506116367fffffffffffffffffffffffffffffffffffffffffffffffffffffffffffffffff8484611520565b905092915050565b60006116498261114a565b91506116548361114a565b9250817fffffffffffffffffffffffffffffffffffffffffffffffffffffffffffffffff048311821515161561168d5761168c6113cf565b5b828202905092915050565b7f45524332303a2064656372656173656420616c6c6f77616e63652062656c6f7760008201527f207a65726f000000000000000000000000000000000000000000000000000000602082015250565b60006116f4602583611037565b91506116ff82611698565b604082019050919050565b60006020820190508181036000830152611723816116e7565b9050919050565b7f45524332303a20617070726f76652066726f6d20746865207a65726f2061646460008201527f7265737300000000000000000000000000000000000000000000000000000000602082015250565b6000611786602483611037565b91506117918261172a565b604082019050919050565b600060208201905081810360008301526117b581611779565b9050919050565b7f45524332303a20617070726f766520746f20746865207a65726f20616464726560008201527f7373000000000000000000000000000000000000000000000000000000000000602082015250565b6000611818602283611037565b9150611823826117bc565b604082019050919050565b600060208201905081810360008301526118478161180b565b9050919050565b7f45524332303a20696e73756666696369656e7420616c6c6f77616e6365000000600082015250565b6000611884601d83611037565b915061188f8261184e565b602082019050919050565b600060208201905081810360008301526118b381611877565b9050919050565b7f45524332303a207472616e736665722066726f6d20746865207a65726f20616460008201527f6472657373000000000000000000000000000000000000000000000000000000602082015250565b6000611916602583611037565b9150611921826118ba565b604082019050919050565b6000602082019050818103600083015261194581611909565b9050919050565b7f45524332303a207472616e7366657220746f20746865207a65726f206164647260008201527f6573730000000000000000000000000000000000000000000000000000000000602082015250565b60006119a8602383611037565b91506119b38261194c565b604082019050919050565b600060208201905081810360008301526119d78161199b565b9050919050565b7f45524332303a207472616e7366657220616d6f756e742065786365656473206260008201527f616c616e63650000000000000000000000000000000000000000000000000000602082015250565b6000611a3a602683611037565b9150611a45826119de565b604082019050919050565b60006020820190508181036000830152611a6981611a2d565b9050919050565b7f45524332303a206d696e7420746f20746865207a65726f206164647265737300600082015250565b6000611aa6601f83611037565b9150611ab182611a70565b602082019050919050565b60006020820190508181036000830152611ad581611a99565b9050919050565b7f45524332303a206275726e2066726f6d20746865207a65726f2061646472657360008201527f7300000000000000000000000000000000000000000000000000000000000000602082015250565b6000611b38602183611037565b9150611b4382611adc565b604082019050919050565b60006020820190508181036000830152611b6781611b2b565b9050919050565b7f45524332303a206275726e20616d6f756e7420657863656564732062616c616e60008201527f6365000000000000000000000000000000000000000000000000000000000000602082015250565b6000611bca602283611037565b9150611bd582611b6e565b604082019050919050565b60006020820190508181036000830152611bf981611bbd565b9050919050565b6000611c0b8261114a565b9150611c168361114a565b925082821015611c2957611c286113cf565b5b82820390509291505056fea2646970667358221220df0e4bf0aecb24a47f66cecfb81e92fe886e11e7c72da8428d25f2b3a533f4ab64736f6c634300080c0033",
  "immutableReferences": {},
  "source": "// SPDX-License-Identifier: MIT\npragma solidity ^0.8.1;\n\nimport \"@openzeppelin/contracts/token/ERC20/ERC20.sol\";\n\ncontract DecagonToken is ERC20 {\n\n    address public admin; \n\n    constructor (uint256 _initialSupply)ERC20(\"DecagonToken\", \"DGT\"){\n        _mint(msg.sender,  _initialSupply * 10 ** decimals());\n        admin = msg.sender;\n    }\n\n    function mint(address holder, uint amount) public {\n        require(msg.sender == admin, \"Only admin can mint token\");\n        _mint(holder, amount * 10 ** decimals());\n    }\n\n    function burn(uint256 amount) external {\n        _burn(msg.sender, amount); \n    }\n}",
  "sourcePath": "/Users/mac/Desktop/blockchain-defi/token-assets/contracts/DecagonToken.sol",
  "compiler": {
    "name": "solc",
    "version": "0.8.12+commit.f00d7308.Emscripten.clang"
  },
  "schemaVersion": "3.4.3",
  "updatedAt": "2022-02-25T17:32:52.178Z",
  "devdoc": {
    "kind": "dev",
    "methods": {
      "allowance(address,address)": {
        "details": "See {IERC20-allowance}."
      },
      "approve(address,uint256)": {
        "details": "See {IERC20-approve}. NOTE: If `amount` is the maximum `uint256`, the allowance is not updated on `transferFrom`. This is semantically equivalent to an infinite approval. Requirements: - `spender` cannot be the zero address."
      },
      "balanceOf(address)": {
        "details": "See {IERC20-balanceOf}."
      },
      "decimals()": {
        "details": "Returns the number of decimals used to get its user representation. For example, if `decimals` equals `2`, a balance of `505` tokens should be displayed to a user as `5.05` (`505 / 10 ** 2`). Tokens usually opt for a value of 18, imitating the relationship between Ether and Wei. This is the value {ERC20} uses, unless this function is overridden; NOTE: This information is only used for _display_ purposes: it in no way affects any of the arithmetic of the contract, including {IERC20-balanceOf} and {IERC20-transfer}."
      },
      "decreaseAllowance(address,uint256)": {
        "details": "Atomically decreases the allowance granted to `spender` by the caller. This is an alternative to {approve} that can be used as a mitigation for problems described in {IERC20-approve}. Emits an {Approval} event indicating the updated allowance. Requirements: - `spender` cannot be the zero address. - `spender` must have allowance for the caller of at least `subtractedValue`."
      },
      "increaseAllowance(address,uint256)": {
        "details": "Atomically increases the allowance granted to `spender` by the caller. This is an alternative to {approve} that can be used as a mitigation for problems described in {IERC20-approve}. Emits an {Approval} event indicating the updated allowance. Requirements: - `spender` cannot be the zero address."
      },
      "name()": {
        "details": "Returns the name of the token."
      },
      "symbol()": {
        "details": "Returns the symbol of the token, usually a shorter version of the name."
      },
      "totalSupply()": {
        "details": "See {IERC20-totalSupply}."
      },
      "transfer(address,uint256)": {
        "details": "See {IERC20-transfer}. Requirements: - `to` cannot be the zero address. - the caller must have a balance of at least `amount`."
      },
      "transferFrom(address,address,uint256)": {
        "details": "See {IERC20-transferFrom}. Emits an {Approval} event indicating the updated allowance. This is not required by the EIP. See the note at the beginning of {ERC20}. NOTE: Does not update the allowance if the current allowance is the maximum `uint256`. Requirements: - `from` and `to` cannot be the zero address. - `from` must have a balance of at least `amount`. - the caller must have allowance for ``from``'s tokens of at least `amount`."
      }
    },
    "version": 1
  },
  "userdoc": {
    "kind": "user",
    "methods": {},
    "version": 1
  }
}